:0400000080313828EB
:100008007E1480318B1E09280A2812280B1D0D2802
:100018000E28122886315226803136280B1F1528C3
:10002800162836282100111E1A281B2826282000E9
:10003800111E1F28202826282B088A002A080A00B3
:10004800803136282100911E2A282B2836282000A6
:10005800911E2F283028362829088A0028080A00E7
:10006800803136287E10090080313A2887310127EF
:100078008031E60020308400003085002A30863147
:10008800AD268031A0308400003085002F308631C5
:10009800AD2680317E10200081310C292000CA0055
:1000A8002D08CD002C08CC00CB016D284C0884000D
:1000B8004D08850000084A06031D63286428652842
:1000C80073280630CC070030CD3D0130F90079089F
:1000D800CB0740084B02031C722873285A280030AB
:1000E800F000F1000B30F2000030F300C43085312D
:1000F800E225803120004C0884004D088500000866
:100108008131C42180312100C40020004D08FA004B
:100118004C08F9000130790784007A0803187A0A34
:1001280085001200031D99289A28E3284D08FA0033
:100138004C08F9000230790784007A0803187A0A13
:10014800850012000319A928AA28D2284D08FA0008
:100158004C08F9000230790784007A0803187A0AF3
:10016800850000082100CE007808F00020004D0826
:10017800FA004C08F9000230790784007A0803185D
:100188007A0A85000008FB00FC017B08F1007C0866
:10019800F200C530853127258031D7282100CE01CE
:1001A800CE0AAA30C50021004408F000C530F1008D
:1001B8004E088431572480312100CD0008294D088C
:1001C800FA004C08F9000230790784007A0803180D
:1001D8007A0A850000082100B90020004C08840034
:1001E8004D08850000082100B80020004D08FA00DD
:1001F8004C08F9000330790784007A0803187A0A52
:10020800850000082100C3002000C101C10A0800C0
:1002180086313F2681318B170B1724302000C2000E
:10022800C301C401C501C601C701C801C9018231A2
:10023800C522813120000C182229232926292200D1
:100248008D16282922008D1220008C1C2C292D297E
:100258004A290C1D302931294A2922000D128D11F5
:1002680051302000C400F7302100D100510820008F
:10027800C605FE302100D10051082000C605FD301A
:100288002100D10051082000C60587298C184D2966
:100298004E2961290C1D51295229612922000D1668
:1002A8008D1114302000C400F7302100D10051080E
:1002B8002000C6054614C61487298C1C64296529A4
:1002C80078290C1968296929782922000D128D15B9
:1002D80020000C187029712974294C30C400372962
:1002E8009430C400C6155E298C187B297C2987297F
:1002F8000C197F298029872922000D168D151330A6
:100308002000C40076298C198A298B29912922007A
:100318000D1520004317C3179F2922000D11BF3068
:100328002100D10051082000C3057F302100D100F1
:1003380051082000C3050C1AA229A329A8292200C4
:100348008D1420004316B02922008D10EF302100B3
:10035800D10051082000C3058E19B329B429B92941
:1003680022000D142000C3161B2922000D10DF30B7
:100378002100D10051082000C3051B2980313828ED
:10038800F1007108F200F218CA29CC290130CD29F0
:100398000030F0007218D129D3290130D429003057
:1003A8007006031DD829DA297217DB29721372190E
:1003B800DE29E0290130E1290030F000721BE5292F
:1003C800E7290130E82900307006031DEC29EE29E1
:1003D8007217EF297213721AF229F4290130F529DC
:1003E8000030F000721BF929FB290130FC2900308C
:1003F8007006031D002A022A7217032A7213F219C3
:10040800062A082A0130092A0030F000F2180D2ABD
:100418000F2A0130102A00307006031D142A162AEC
:10042800F217172AF213721A1A2A1C2A01301D2AE7
:100438000030F000F21B212A232A0130242A003040
:100448007006031D282A2A2AF2172B2AF213F21AF9
:100458002E2A302A0130312A0030F000F21B352ACA
:10046800372A0130382A00307006031D3C2A3E2AFC
:10047800F2173F2AF2130310F21F03140318452A38
:10048800472AF217482AF213720808002000BB0115
:100498003808CE00CF014E08F0004F08F1000630B2
:1004A800F2000030F30085318E258231700820007B
:1004B8002C07D10071082D3DD2005208CF005108F9
:1004C800CE0004304E0784004F0803184F0A8500F9
:1004D80012000319702A712A862A5208CF0051087F
:1004E800CE0005304E0784004F0803184F0A8500D8
:1004F8000008F8005108840052088500000880317F
:100508005220823101302000CE004E08B807400842
:100518003802031C902A912A922AB8013808CE0082
:10052800CF014E08F0004F08F1000630F20000300D
:10053800F30085318E258231700820002C07D10008
:1005480071082D3DD2005208CF005108CE0004306A
:100558004E0784004F0803184F0A8500120003193C
:10056800B62AB72A862A5208CF005108CE0004308E
:100578004E0784004F0803184F0A85000008BF0083
:100588000800252B20004103031DCB2ACC2A3D2B34
:10059800C1018631E12682318331BB2382312000BB
:1005A800BA01BA0A3D2B111ADA2ADB2A3D2B23009D
:1005B8009E1CDF2AE02A3D2B210039080319E52A71
:1005C800E62AF12A43088631702682318631DC26F4
:1005D800823102302000BA003D2B2000BA013D2BA9
:1005E80020003E08031DF92AFA2A072BBA01003019
:1005F800D300D4000C30D5000030D600B830853197
:10060800AD2582313D2B86319E268231003A031971
:100618000E2B0F2B3D2B8331EF238231013A031D23
:10062800162B172B3D2B8631E12682310330200013
:10063800BA003D2B20002F088A002E080A008331BB
:10064800F12A20003A082100CF00D0015008003AD2
:1006580003192F2B3D2B4F08003A0319C62A013ADC
:100668000319D72A033A0319F42A013A03191E2B4E
:100678003D2B08002100911281302000D300033067
:10068800D4008631BF268331210011124C3020005E
:10069800D3000530D4008631B926833118302300C1
:1006A8009F0090309D0024309E00FF309B00023058
:1006B8009C0003302000D3000730D4008631CB26BD
:1006C8008331F6302000D3000630D4008631C526A9
:1006D8008331FA302000D3000630D4008631D12689
:1006E80083312000B101B701B6010830B500B4016B
:1006F800B301B20121009116080020003408A03E81
:1007080086008701810123001D1D8B2B8C2B972BC5
:1007180020003408A03E86008701811427088A003B
:1007280026080A00833123009D1C9B2B9C2BA72B9A
:1007380020003408A03E86008701011525088A009C
:1007480024080A00833120003408A03E860087016F
:1007580001080319B02BB12BB72B23088A002208F4
:100768000A008331BA2B8531FC2583310800863194
:10077800FE268331003084318A2483315530843118
:100788008A2483312100440884318A24833121005A
:100798003908031DD02BD12BEE2B2000D601E12BDD
:1007A8005608C53E86008701010884318A248331B2
:1007B80001302000D5005508D60721004E0820003A
:1007C8005602031CE82BE92BD42B21004D08843159
:1007D8008A248331080021003908200039020318CF
:1007E800F62BF72B082C8431B32483312000DB004F
:1007F8003908BA3E860087015B0881000130DB00BA
:100808005B08B9070000212CB90121004408200029
:10081800D300BA30D400210039088431232483312D
:100828002000DB008431B324833120005B06031DE4
:100838001E2C1F2C212C0130222C003008002000F7
:10084800D7005308D500D6015508D9005608DA0054
:10085800D8014D2C54088600870101085907D90092
:100868005A0803185A0ADA000130D5005508D40787
:1008780001305A02003003195902031C442C452C3C
:10088800492CFF30D9020030DA3B0130D500550839
:10089800D80757085802031C522C532C2E2CD90960
:1008A800DA0959080800F4007008F200F301720828
:1008B800F6007308F700F501802C7108860087019F
:1008C80001087607F60077080318770AF700013061
:1008D800F2007208F107013077020030031976023E
:1008E800031C772C782C7C2CFF30F6020030F73B69
:1008F8000130F2007208F50774087502031C852C94
:10090800862C612CF609F709760808002000D40027
:1009180035080319902C912C8C2C2100111A952C38
:10092800962C9B2C2000540823009A00B02C1112FE
:1009380020003708B03E8600870154088100013046
:10094800D3005308B70708303702031CAC2CAD2C72
:10095800AE2CB7010130B5022100111608002000A5
:1009680032080319B82CB92CB32C3308A03E8600E2
:1009780087010108B1003308A83E860087010108F5
:10098800D4000130D3005308B30708303302031CE6
:10099800CE2CCF2CD02CB301210091120130200095
:1009A800B2022100911620005408080020003E03DE
:1009B800031DDF2CE02CED2C0130FD007D08BC0769
:1009C80066083C02031CE92CEA2CED2C8631F22641
:1009D800843120003D03031DF22CF32C002D01303F
:1009E800FD007D08BB073F083B02031CFC2CFD2CC7
:1009F800002D82314A22843108002000DA00530891
:100A0800D9005A08D8001A2D59088600870101080C
:100A1800D7000130D6005608D90758088600870144
:100A2800570881000130D6005608D8070130D40293
:100A38000030D53B540A031D252D550A031D252DCD
:100A4800262D082D0800F4007008F7007408F60039
:100A58003F2D7708860087010108F5000130F30073
:100A68007308F7077608860087017508810001304A
:100A7800F3007308F6070130F1020030F23B710A07
:100A8800031D4A2D720A031D4A2D4B2D2D2D0800DA
:100A98000830200035020318522D532D6B2D3608CF
:100AA800B03E86008701010823009A000130F0005B
:100AB80070082000B60708303602031C642D652D27
:100AC800662DB6010130F0007008B5076D2D2100C4
:100AD800111208002000DC00210038083F392000EE
:100AE800DB00BA30D3000830D4000030D5005C08F1
:100AF80085310125853100302000D300D4000C3029
:100B0800D5000030D600B8308531AD2585312000BC
:100B18005B080800F401F501701C932D942D982DA5
:100B28007208F4077308F53D0130F235F30D890BAF
:100B3800992D0130F136F00C890B9E2D7008710447
:100B4800031DA72DA82D902D7508F1007408F0003D
:100B580008002000D9005908D800BB2D5808860085
:100B68008701530881000130D7005708D8070130A2
:100B7800D5020030D63B550A031DC62D560A031D63
:100B8800C62DC72DB22D0800220090018C018D01C1
:100B98008E01083021009000FF308C00C0308D009D
:100BA800BF308E0023008D0120308C00240090017E
:100BB8008D012100951722009D010800F500750898
:100BC800F600EF2D76088600870170088100013055
:100BD800F4007408F6070130F2020030F33B720AA1
:100BE800031DFA2D730A031DFA2DFB2DE62D0800AF
:100BF80020003408A83E86008701230019088100D8
:100C08000130F00070082000B40708303402031CDB
:100C18000E2E0F2E102EB4010130F0007008B2070E
:100C280008002000D9005608AD005508AC00590846
:100C3800C0005808AF005708AE008631EA26863152
:100C48008631952686318631EE26863108002100C8
:100C58001508C03914389500063020009500063074
:100C6800B0000B118B160230D3000730D400863148
:100C7800B326863108008531C825863186317D2620
:100C880086318631E626863186312B2686318331B8
:100C98003E23863186316226863108000B112000FA
:100CA800300895002008210403195B2E5C2E612E64
:100CB80021088A0020080A0086310800A730200091
:100CC800D5008630D6008930D7000630D8000130EC
:100CD80086311526863108002000D4005408E60025
:100CE80000308631D726863100002000BE01BE0ABA
:100CF8000800703021009900980122009601210017
:100D08001A1F872E882E832E08005D3085316E25A8
:100D180086312000E5006508013A0319942E942EC7
:100D28000800DA302000D3000430D4008631B3261E
:100D38008631080020003208031DA32EA52E01309D
:100D4800A62E003008000134003408340F3414345F
:100D58004234640080010131890BAE2E003420003A
:100D68005408A1005308A000080020005408AB0054
:100D78005308AA00080020005408A9005308A80036
:100D8800080020005408A5005308A400080020000B
:100D98005408A7005308A600080020005408A30020
:100DA8005308A20008002000D3005308950008004B
:100DB80023001D1621009116080023001D12210092
:100DC8009112080012302100970008002000BC0191
:100DD800BE0108002000BD01BD0A08002000BC01BA
:100DE800BE01080023001D121D1608008531FC25D0
:100DF8008631080023009E1508000A340800080000
:020000040001F9
:08000000FF3FFF3FFF3FFF3F00
:04000E00E43FFF1FAD
:00000001FF
