:020000040000FA
:0400000080313828EB
:100008007E1480318B1E09280A2812280B1D0D2802
:100018000E28122886311B26803136280B1F1528FA
:10002800162836282100111E1A281B2826282000E9
:10003800111E1F28202826282B088A002A080A00B3
:10004800803136282100911E2A282B2836282000A6
:10005800911E2F283028362829088A0028080A00E7
:10006800803136287E10090080313A288631CA2628
:100078008031E60020308400003085002A30863147
:1000880076268031A0308400003085002F308631FC
:10009800762680317E102000813192292000CA0006
:1000A8002D08CD002C08CC00CB016D284C0884000D
:1000B8004D08850000084A06031D63286428652842
:1000C80073280630CC070030CD3D0130F90079089F
:1000D800CB0740084B02031C722873285A280030AB
:1000E800F000F1000B30F2000030F300C43085312D
:1000F800AB25803120004C0884004D08850000089D
:1001080081310C2180312100C40020004D08FA0003
:100118004C08F9000130790784007A0803187A0A34
:1001280085001200031D99289A28E3284D08FA0033
:100138004C08F9000230790784007A0803187A0A13
:10014800850012000319A928AA28D2284D08FA0008
:100158004C08F9000230790784007A0803187A0AF3
:10016800850000082100CE007808F00020004D0826
:10017800FA004C08F9000230790784007A0803185D
:100188007A0A85000008FB00FC017B08F1007C0866
:10019800F200C5308431F0248031D7282100CE0107
:1001A800CE0AAA30C50021004408F000C530F1008D
:1001B8004E088431202480312100CD0008294D08C3
:1001C800FA004C08F9000230790784007A0803180D
:1001D8007A0A850000082100B90020004C08840034
:1001E8004D08850000082100B80020004D08FA00DD
:1001F8004C08F9000330790784007A0803187A0A52
:10020800850000082100C3002000C101C10A0800C0
:10021800F1007108F200F218122914290130152989
:100228000030F000721819291B2901301C290030F0
:100238007006031D202922297217232972137219A7
:1002480026292829013029290030F000721B2D2980
:100258002F290130302900307006031D3429362932
:10026800721737297213721A3A293C2901303D292D
:100278000030F000721B4129432901304429003025
:100288007006031D48294A2972174B297213F2195F
:100298004E295029013051290030F000F218552913
:1002A80057290130582900307006031D5C295E2942
:1002B800F2175F29F213721A62296429013065293D
:1002C8000030F000F21B69296B2901306C290030DD
:1002D8007006031D70297229F2177329F213F21A96
:1002E80076297829013079290030F000F21B7D2920
:1002F8007F290130802900307006031D8429862952
:10030800F2178729F2130310F21F031403188D291B
:100318008F29F2179029F2137208080086310826EF
:1003280081318B170B1724302000C2000830C3001E
:100338009430C400C5012F30C600C701A330C800DF
:10034800BE30C90082318E22813120000C18AD29BF
:10035800AE29B32922008D162000C716BB2922001A
:100368008D12DF302100D10051082000C7058C18FC
:10037800BE29BF29C42922000D1620004414CC2907
:1003880022000D12FE302100D10051082000C405C2
:100398000C19CF29D029D52922008D152000C31585
:1003A800DD2922008D11F7302100D10051082000ED
:1003B800C3058C19E029E129E62922000D15200042
:1003C8004317EE2922000D11BF302100D10051083A
:1003D8002000C3050C1AF129F229F72922008D14EF
:1003E80020004316FF2922008D10EF302100D10094
:1003F80051082000C3058E19022A032A082A220060
:100408000D142000C316A62922000D10DF3021008C
:10041800D10051082000C305A629803138282000C2
:10042800BB013808CE00CF014E08F0004F08F1009C
:100438000630F2000030F30085315725823170080C
:1004480020002C07D10071082D3DD2005208CF00A2
:100458005108CE0004304E0784004F0803184F0A95
:10046800850012000319392A3A2A4F2A5208CF0068
:100478005108CE0005304E0784004F0803184F0A74
:1004880085000008F800510884005208850000081B
:1004980080315220823101302000CE004E08B8074A
:1004A80040083802031C592A5A2A5B2AB80138081E
:1004B800CE00CF014E08F0004F08F1000630F200E0
:1004C8000030F300853157258231700820002C0751
:1004D800D10071082D3DD2005208CF005108CE003E
:1004E80004304E0784004F0803184F0A8500120095
:1004F80003197F2A802A4F2A5208CF005108CE00BC
:1005080004304E0784004F0803184F0A850000087E
:10051800BF000800EE2A20004103031D942A952AF3
:10052800062BC1018631AA26823183318423823188
:100538002000BA01BA0A062B111AA32AA42A062BEC
:1005480023009E1CA82AA92A062B21003908031972
:10055800AE2AAF2ABA2A4308863139268231863133
:10056800A526823102302000BA00062B2000BA01ED
:10057800062B20003E08031DC22AC32AD02ABA012E
:100588000030D300D4000C30D5000030D600B8308D
:10059800853176258231062B863167268231003AED
:1005A8000319D72AD82A062B8331B8238231013A76
:1005B800031DDF2AE02A062B8631AA268231033062
:1005C8002000BA00062B20002F088A002E080A00F7
:1005D8008231BA2A20003A082100CF00D001500801
:1005E800003A0319F82A062B4F08003A03198F2AF4
:1005F800013A0319A02A033A0319BD2A013A03193B
:10060800E72A062B0800210091124A302000D30067
:100618000330D40086318826833121001112153029
:100628002000D3000530D40086318226833118306B
:1006380023009F0090309D0024309E00FF309B00D7
:1006480002309C00CC302000D3000630D400863124
:1006580094268331BF302000D3000630D400863181
:100668008E268331C3302000D3000630D400863173
:100678009A2683312000B101B701B6010830B500D0
:10068800B401B301B201210091160800200034081A
:10069800A03E86008701810123001D1D542B552B88
:1006A800602B20003408A03E8600870181142708AB
:1006B8008A0026080A00833123009D1C642B652BC1
:1006C800702B20003408A03E8600870101152508FC
:1006D8008A0024080A00833120003408A03E8600DE
:1006E800870101080319792B7A2B802B23088A00AC
:1006F80022080A008331832B8531C5258331080000
:100708008631C726833100308431532483315530F4
:1007180084315324833121004408843153248331A4
:1007280021003908031D992B9A2BB72B2000D601DD
:10073800AA2B5608C53E8600870101088431532438
:10074800833101302000D5005508D60721004E0816
:1007580020005602031CB12BB22B9D2B21004D0803
:1007680084315324833108002100390820003902DC
:100778000318BF2BC02BD12B84317C24833120005C
:10078800DB003908BA3E860087015B08810001302A
:10079800DB005B08B9070000EA2BB9012100440817
:1007A8002000D300BA30D400210039088331EC236B
:1007B80083312000DB0084317C24833120005B06F8
:1007C800031DE72BE82BEA2B0130EB2B0030080048
:1007D8002000D7005308D500D6015508D90056087F
:1007E800DA00D801162C5408860087010108590739
:1007F800D9005A0803185A0ADA000130D5005508FA
:10080800D40701305A02003003195902031C0D2C79
:100818000E2C122CFF30D9020030DA3B0130D50003
:100828005508D80757085802031C1B2C1C2CF72BFB
:10083800D909DA0959080800F4007008F200F30130
:100848007208F6007308F700F501492C7108860054
:10085800870101087607F60077080318770AF7007A
:100868000130F2007208F1070130770200300319F5
:100878007602031C402C412C452CFF30F602003038
:10088800F73B0130F2007208F50774087502031C83
:100898004E2C4F2C2A2CF609F70976080800200060
:1008A800D40035080319592C5A2C552C2100111A3B
:1008B8005E2C5F2C642C2000540823009A00792CAD
:1008C800111220003708B03E8600870154088100C5
:1008D8000130D3005308B70708303702031C752CC2
:1008E800762C772CB7010130B502210011160800CB
:1008F800200032080319812C822C7C2C3308A03E5E
:10090800860087010108B1003308A83E86008701E8
:100918000108D4000130D3005308B307083033026C
:10092800031C972C982C992CB301210091120130AB
:100938002000B2022100911620005408080020006F
:100948003E03031DA82CA92CB62C0130FD007D0800
:10095800BC0766083C02031CB22CB32CB62C8631AB
:10096800BB26843120003D03031DBB2CBC2CC92CA5
:100978000130FD007D08BB073F083B02031CC52C66
:10098800C62CC92C82311322843108002000DA00D9
:100998005308D9005A08D800E32C59088600870163
:1009A8000108D7000130D6005608D9075808860034
:1009B8008701570881000130D6005608D807013052
:1009C800D4020030D53B540A031DEE2C550A031DF2
:1009D800EE2CEF2CD12C0800F4007008F7007408F6
:1009E800F600082D7708860087010108F500013018
:1009F800F3007308F70776088600870175088100F9
:100A08000130F3007308F6070130F1020030F23BC1
:100A1800710A031D132D720A031D132D142DF62CB4
:100A2800080008302000350203181B2D1C2D342D1A
:100A38003608B03E86008701010823009A0001307D
:100A4800F00070082000B60708303602031C2D2D70
:100A58002E2D2F2DB6010130F0007008B507362D68
:100A68002100111208002000DC00210038083F395D
:100A78002000DB00BA30D3000830D4000030D500A5
:100A88005C088431CA24853100302000D300D400AA
:100A98000C30D5000030D600B83085317625853148
:100AA80020005B080800F401F501701C5C2D5D2D29
:100AB800612D7208F4077308F53D0130F235F30D26
:100AC800890B622D0130F136F00C890B672D700807
:100AD8007104031D702D712D592D7508F1007408CE
:100AE800F00008002000D9005908D800842D5808C3
:100AF80086008701530881000130D7005708D807BE
:100B08000130D5020030D63B550A031D8F2D560AF9
:100B1800031D8F2D902D7B2D0800220090018C0144
:100B28008D018E01083021009000FF308C00C0300C
:100B38008D00BF308E0023008D0120308C002400F2
:100B480090018D012100951722009D010800F500F4
:100B58007508F600B82D76088600870170088100B0
:100B68000130F4007408F6070130F2020030F33B5C
:100B7800720A031DC32D730A031DC32DC42DAF2D87
:100B8800080020003408A83E8600870123001908C1
:100B980081000130F00070082000B40708303402EA
:100BA800031CD72DD82DD92DB4010130F0007008C1
:100BB800B20708002000D9005608AD005508AC005F
:100BC8005908C0005808AF005708AE008631B32650
:100BD800853186315E2685318631B7268531080014
:100BE80021001508C03914389500063020009500FA
:100BF8000630B0000B118B16CB30D3000630D40072
:100C080086317C26853108008531912586318631EB
:100C1800462686318631AF2686318531F4258631E0
:100C280083310723863186312B26863108000B1144
:100C3800200030089500200821040319242E252EB1
:100C48002A2E21088A0020080A0086310800703000
:100C58002000D5008630D6005230D7000630D800A4
:100C680001308531DE25863108002000D400540883
:100C7800E60000308631A026863100002000BE0143
:100C8800BE0A0800703021009900980122009601E0
:100C980021001A1F502E512E4C2E08005D30853130
:100CA800372586312000E5006508013A03195D2ED5
:100CB8005D2E0800A3302000D3000430D400863114
:100CC8007C268631080020003208031D6C2E6E2E0B
:100CD80001306F2E00300800013400340834143419
:100CE8001E344234640080010131890B772E0034B0
:100CF80020005408A1005308A00008002000540850
:100D0800AB005308AA00080020005408A9005308A3
:100D1800A800080020005408A5005308A4000800F3
:100D280020005408A7005308A60008002000540813
:100D3800A3005308A20008002000D3005308950020
:100D4800080023001D1621009116080023001D121B
:100D5800210091120800123021009700080020009D
:100D6800BC01BE0108002000BD01BD0A080020002A
:100D7800BC01BE01080023001D121D1608008531A4
:100D8800C5258631080023009E1508000A3408008E
:020D9800080051
:020000040001F9
:04000E00E43FFF1FAD
:00000001FF
