:020000040000FA
:0400000080313828EB
:100008007E1480318B1E09280A2812280B1D0D2802
:100018000E28122886311426803136280B1F152801
:10002800162836282100111E1A281B2826282000E9
:10003800111E1F28202826282B088A002A080A00B3
:10004800803136282100911E2A282B2836282000A6
:10005800911E2F283028362829088A0028080A00E7
:10006800803136287E10090080313A288631C3262F
:100078008031E10020308400003085002C3086314A
:100088006F268031A0308400003085002F30863103
:100098006F2680317E1020008531D92D2000CC00BC
:1000A8002F08CF002E08CE00CD016D284E08840001
:1000B8004F08850000084C06031D6328642865283E
:1000C80073280630CE070030CF3D0130F90079089B
:1000D800CD0742084D02031C722873285A280030A5
:1000E800F000F1000B30F2000030F300C43085312D
:1000F8009025803120004E0884004F0885000008B4
:1001080081319C2180312100C40020004F08FA0071
:100118004E08F9000130790784007A0803187A0A32
:1001280085001200031D99289A28E3284F08FA0031
:100138004E08F9000230790784007A0803187A0A11
:10014800850012000319A928AA28D2284F08FA0006
:100158004E08F9000230790784007A0803187A0AF1
:10016800850000082100CE007808F00020004F0824
:10017800FA004E08F9000230790784007A0803185B
:100188007A0A85000008FB00FC017B08F1007C0866
:10019800F200C5308431D5248031D7282100CE0122
:1001A800CE0AAA30C50021004408F000C530F1008D
:1001B8004E0884312C2480312100CD0008294F08B5
:1001C800FA004E08F9000230790784007A0803180B
:1001D8007A0A850000082100B90020004E08840032
:1001E8004F08850000082100B80020004F08FA00D9
:1001F8004E08F9000330790784007A0803187A0A50
:10020800850000082100C3002000C301C30A0800BC
:1002180020004003031D112912291F290130FD0068
:100228007D08BE0761083E02031C1B291C291F29E3
:100238008631B426813120003F03031D2429252956
:100248009B290130FD007D08BD0741083D02031CC4
:100258002E292F299B29823122228131003020002A
:100268002D020F3003192C0203183B293C29412980
:100278000130AC070030AD3D9B29AC01AD014B0A04
:10028800031D472948299729CB014A0A031D4D29EF
:100298004E299229CA01490A031D532954298D2937
:1002A800C901480A031D59295A298829C801470A3A
:1002B800031D5F2960298329C701460A031D652993
:1002C80066297E29C601450A031D6B296C297929EF
:1002D800C501440A031D712972297429C4019B2987
:1002E8000130FD007D08C4079B290130FD007D0811
:1002F800C5079B290130FD007D08C6079B290130F1
:10030800FD007D08C7079B290130FD007D08C8074F
:100318009B290130FD007D08C9079B290130FD009C
:100328007D08CA079B290130FD007D08CB0708001E
:10033800F1007108F200F218A229A4290130A529B8
:100348000030F0007218A929AB290130AC2900301F
:100358007006031DB029B2297217B32972137219D6
:10036800B629B8290130B9290030F000721BBD291F
:10037800BF290130C02900307006031DC429C629D1
:100388007217C7297213721ACA29CC290130CD29CC
:100398000030F000721BD129D3290130D429003054
:1003A8007006031DD829DA297217DB297213F2198E
:1003B800DE29E0290130E1290030F000F218E529B2
:1003C800E7290130E82900307006031DEC29EE29E1
:1003D800F217EF29F213721AF229F4290130F529DC
:1003E8000030F000F21BF929FB290130FC2900300C
:1003F8007006031D002A022AF217032AF213F21AC2
:10040800062A082A0130092A0030F000F21B0D2ABA
:100418000F2A0130102A00307006031D142A162AEC
:10042800F217172AF2130310F21F031403181D2AD8
:100438001F2AF217202AF213720808002000BD01B3
:100448003A08D000D1015008F0005108F1000630F8
:10045800F2000030F30085313C258231700820001D
:100468002E07D30071082F3DD4005408D10053083B
:10047800D00004305007840051080318510A850041
:1004880012000319482A492A5E2A5408D100530841
:10049800D00005305007840051080318510A850020
:1004A8000008F800530884005408850000088031CB
:1004B8005220823101302000D0005008BA0742088B
:1004C8003A02031C682A692A6A2ABA013A08D00043
:1004D800D1015008F0005108F1000630F200003058
:1004E800F30085313C258231700820002E07D300A7
:1004F80071082F3DD4005408D1005308D0000430AF
:100508005007840051080318510A85001200031986
:100518008E2A8F2A5E2A5408D1005308D00004304E
:100528005007840051080318510A85000008C100CB
:100538000800FB2A4303031DA22AA32A122BC30186
:100548008631A32682318331902382312000BC0179
:10055800BC0A122B2100111AB22AB32A122B23002B
:100568009E1CB72AB82A122B210039080319BD2A64
:10057800BE2AC92A430886313226823186319E2610
:10058800823102302000BC00122B2000BC01122B4B
:100598004008031DD02AD12ADE2ABC010030D5002C
:1005A800D6000C30D7000030D800B83085315B2534
:1005B8008231122B863160268231003A0319E52AEE
:1005C800E62A122B8331C4238231013A031DED2A16
:1005D800EE2A122B8631A326823103302000BC007C
:1005E800122B31088A0030080A008231C92A2000FB
:1005F8003C08DF00E0016008003A0319042B122BC5
:100608005F08003A03199E2A013A0319AE2A033AF1
:100618000319CC2A013A0319F52A122B08002100E4
:10062800911256302000D5000330D600863181263D
:10063800833121001112FA302000D5000430D60091
:1006480086317B268331183023009F0090309D002F
:1006580024309E00FF309B0002309C00C5302000F3
:10066800D5000630D60086318D268331B83020007B
:10067800D5000630D600863187268331BC3020006D
:10068800D5000630D6008631932683312000B30189
:10069800B901B8010830B700B601B501B4012100AD
:1006A8009116080020003608A03E860087018101C7
:1006B80023001D1D602B612B6C2B20003608A03EEB
:1006C80086008701811427088A0026080A008331DA
:1006D80023009D1C702B712B7C2B20003608A03E1C
:1006E80086008701011525088A0024080A0083313D
:1006F80020003608A03E8600870101080319852BD3
:10070800862B8C2B23088A0022080A0083318F2B22
:100718008531AA25833108008631C026833100300F
:1007280084315F248331553084315F248331210043
:10073800440884315F24833121003908031DA52B27
:10074800A62BC32B2000D801B62B5808C53E86001F
:100758008701010884315F24833101302000D700EC
:100768005708D80721004E0820005802031CBD2B4B
:10077800BE2BA92B21004D0884315F24833108004A
:100788002100390820003B020318CB2BCC2BDD2B92
:100798008431882483312000DD003B08BA3E86007E
:1007A80087015D0881000130DD005D08BB0700009E
:1007B800F62BBB01210044082000D500BA30D60032
:1007C800210039088331F82383312000DD0084318A
:1007D8008824833120005D06031DF32BF42BF62BB0
:1007E8000130F72B003008002000D9005508D70049
:1007F800D8015708DB005808DC00DA01222C56081B
:100808008600870101085B07DB005C0803185C0AA7
:10081800DC000130D7005708D60701305C020030F1
:1008280003195B02031C192C1A2C1E2CFF30DB0247
:100838000030DC3B0130D7005708DA0759085A0264
:10084800031C272C282C032CDB09DC095B08080077
:10085800F4007008F200F3017208F6007308F7005C
:10086800F501552C71088600870101087607F60006
:1008780077080318770AF7000130F2007208F107C9
:1008880001307702003003197602031C4C2C4D2CE2
:10089800512CFF30F6020030F73B0130F2007208AD
:1008A800F50774087502031C5A2C5B2C362CF609C4
:1008B800F709760808002000D60037080319652CC8
:1008C800662C612C2100111A6A2C6B2C702C2000CC
:1008D800560823009A00852C111220003908B03ED2
:1008E80086008701560881000130D5005508B907F0
:1008F80008303902031C812C822C832CB901013069
:10090800B7022100111608002000340803198D2CA5
:100918008E2C882C3508A03E860087010108B3007C
:100928003508A83E860087010108D6000130D500A9
:100938005508B50708303502031CA32CA42CA52C98
:10094800B5012100911201302000B4022100911656
:100958002000560808002000DC005508DB005C0871
:10096800DA00C82C5B08860087010108D90001302D
:10097800D8005808DB075A08860087015908810003
:100988000130D8005808DA070130D6020030D73BCA
:10099800560A031DD32C570A031DD32CD42CB62C6E
:1009A8000800F4007008F7007408F600ED2C7708CA
:1009B800860087010108F5000130F3007308F70786
:1009C800760886008701750881000130F3007308F6
:1009D800F6070130F1020030F23B710A031DF82CD2
:1009E800720A031DF82CF92CDB2C080008302000B3
:1009F80037020318002D012D192D3808B03E860046
:100A08008701010823009A000130F00070082000D7
:100A1800B80708303802031C122D132D142DB80105
:100A28000130F0007008B7071B2D210011120800D3
:100A38002000DD00210038083F392000DE00BA30F0
:100A4800D5000830D6000030D7005D088431AF24C7
:100A5800853100302000D500D6000C30D70000309A
:100A6800D800B83085315B25853120005E08080044
:100A7800F401F501701C412D422D462D7208F40732
:100A88007308F53D0130F235F30D890B472D013020
:100A9800F136F00C890B4C2D70087104031D552D8F
:100AA800562D3E2D7508F1007408F000080020004E
:100AB800DB005B08DA00692D5A08860087015508B3
:100AC80081000130D9005908DA070130D702003017
:100AD800D83B570A031D742D580A031D742D752D14
:100AE800602D0800220090018C018D018E010830D4
:100AF80021009000FF308C00C0308D00BF308E0088
:100B080023008D0120308C00240090018D012100EC
:100B1800951722009D010800F5007508F6009D2D27
:100B2800760886008701700881000130F400740897
:100B3800F6070130F2020030F33B720A031DA82DBC
:100B4800730A031DA82DA92D942D0800200036082E
:100B5800A83E860087012300190881000130F000B3
:100B680070082000B60708303602031CBC2DBD2DC6
:100B7800BE2DB6010130F0007008B407080020004F
:100B8800DB005808AF005708AE005B08C2005A08DF
:100B9800B1005908B0008631AC2685318631572618
:100BA80085318631B02685310800863101268531A8
:100BB8008B170B172000C401C501C601C701C80166
:100BC800C901CA01CB0182319D228531E72D8031CF
:100BD800382821001508C03914389500063020003F
:100BE80095000630B2000B118B16C430D5000630C4
:100BF800D6008631752685310800853176258631FF
:100C080086313F2686318631A82686318531ED2505
:100C180086318331132386318631242686310800B4
:100C28000B112000320895002008210403191D2EFD
:100C38001E2E232E21088A0020080A00863108006B
:100C480069302000D7008630D8004B30D9000630F4
:100C5800DA0001308531C325863108002000D6002E
:100C68005608E100003086319926863100002000C0
:100C7800C001C00A080070302100990098012200C4
:100C8800960121001A1F492E4A2E452E0800CF3002
:100C980085311C2586312100D7005708013A0319F0
:100CA800562E562E08000C302000D5000130D600F4
:100CB800863175268631080020003408031D652E0C
:100CC800672E0130682E00300800013400340834E3
:100CD8000F3414344434640080010131890B702EC0
:100CE800003420005608A1005508A0000800200084
:100CF8005608AB005508AA00080020005608A900AD
:100D08005508A800080020005608A5005508A400AA
:100D1800080020005608A7005508A6000800200073
:100D28005608A3005508A20008002000D500550861
:100D38009500080023001D162100911608002300C5
:100D48001D1221009112080012302100970008009E
:100D58002000BE01C00108002000BF01BF0A080032
:100D68002000BE01C001080023001D121D16080046
:100D78008531AA258631080023009E1508000A340B
:040D88000800080057
:020000040001F9
:04000E00E43FFF1FAD
:00000001FF
