:020000040000FA
:0400000080313828EB
:100008007E1480318B1E09280A2812280B1D0D2802
:100018000E28122886312426803136280B1F1528F1
:10002800162836282100111E1A281B2826282000E9
:10003800111E1F28202826282B088A002A080A00B3
:10004800803136282100911E2A282B2836282000A6
:10005800911E2F283028362829088A0028080A00E7
:10006800803136287E10090080313A288631D3261F
:100078008031E60020308400003085002A30863147
:100088007F268031A0308400003085002F308631F3
:100098007F2680317E10200081310C292000CA0083
:1000A8002D08CD002C08CC00CB016D284C0884000D
:1000B8004D08850000084A06031D63286428652842
:1000C80073280630CC070030CD3D0130F90079089F
:1000D800CB0740084B02031C722873285A280030AB
:1000E800F000F1000B30F2000030F300C43085312D
:1000F800B425803120004C0884004D088500000894
:100108008131962180312100C40020004D08FA0079
:100118004C08F9000130790784007A0803187A0A34
:1001280085001200031D99289A28E3284D08FA0033
:100138004C08F9000230790784007A0803187A0A13
:10014800850012000319A928AA28D2284D08FA0008
:100158004C08F9000230790784007A0803187A0AF3
:10016800850000082100CE007808F00020004D0826
:10017800FA004C08F9000230790784007A0803185D
:100188007A0A85000008FB00FC017B08F1007C0866
:10019800F200C5308431F9248031D7282100CE01FE
:1001A800CE0AAA30C50021004408F000C530F1008D
:1001B8004E088431292480312100CD0008294D08BA
:1001C800FA004C08F9000230790784007A0803180D
:1001D8007A0A850000082100B90020004C08840034
:1001E8004D08850000082100B80020004D08FA00DD
:1001F8004C08F9000330790784007A0803187A0A52
:10020800850000082100C3002000C101C10A0800C0
:100218008631112681318B170B1724302000C2003C
:10022800C301C401C501C601C701C801C9018231A2
:100238009722813120000C182229232929292200FC
:100248008D1620004614C614372922008D12FE3060
:100258002100D10051082000C605FD302100D10041
:1002680051082000C6058C183A293B29402922004C
:100278000D1620004417482922000D12BF30210016
:10028800D10051082000C4050C194B294C295129CB
:1002980022008D152000C615592922008D11F7302E
:1002A8002100D10051082000C5058C195C295D2961
:1002B800632922000D1520004317C3177129220056
:1002C8000D11BF302100D10051082000C3057F3037
:1002D8002100D10051082000C3050C1A7429752982
:1002E8007A2922008D1420004316822922008D10BD
:1002F800EF302100D10051082000C3058E1985294F
:1003080086298B2922000D142000C3161B292200E0
:100318000D10DF302100D10051082000C3051B2932
:1003280080313828F1007108F200F2189C299E29C2
:1003380001309F290030F0007218A329A529013047
:10034800A62900307006031DAA29AC297217AD2909
:1003580072137219B029B2290130B3290030F000A4
:10036800721BB729B9290130BA2900307006031D5C
:10037800BE29C0297217C1297213721AC429C62945
:100388000130C7290030F000721BCB29CD2901307C
:10039800CE2900307006031DD229D4297217D52919
:1003A8007213F219D829DA290130DB290030F0005C
:1003B800F218DF29E1290130E22900307006031D17
:1003C800E629E829F217E929F213721AEC29EE292D
:1003D8000130EF290030F000F21BF329F529013034
:1003E800F62900307006031DFA29FC29F217FD29A9
:1003F800F213F21A002A022A0130032A0030F00010
:10040800F21B072A092A01300A2A00307006031D48
:100418000E2A102AF217112AF2130310F21F0314DE
:100428000318172A192AF2171A2AF2137208080051
:100438002000BB013808CE00CF014E08F0004F085D
:10044800F1000630F2000030F3008531602582317A
:10045800700820002C07D10071082D3DD2005208E9
:10046800CF005108CE0004304E0784004F0803180F
:100478004F0A850012000319422A432A582A5208B3
:10048800CF005108CE0005304E0784004F080318EE
:100498004F0A85000008F8005108840052088500BA
:1004A800000880315220823101302000CE004E08F1
:1004B800B80740083802031C622A632A642AB80174
:1004C8003808CE00CF014E08F0004F08F100063082
:1004D800F2000030F3008531602582317008200079
:1004E8002C07D10071082D3DD2005208CF005108C9
:1004F800CE0004304E0784004F0803184F0A8500C9
:1005080012000319882A892A582A5208CF0051084C
:10051800CE0004304E0784004F0803184F0A8500A8
:100528000008BF000800F72A20004103031D9D2A88
:100538009E2A0F2BC1018631B326823183318D2348
:1005480082312000BA01BA0A0F2B111AAC2AAD2A3F
:100558000F2B23009E1CB12AB22A0F2B2100390829
:100568000319B72AB82AC32A43088631422682319A
:100578008631AE26823102302000BA000F2B2000CF
:10058800BA010F2B20003E08031DCB2ACC2AD92AFA
:10059800BA010030D300D4000C30D5000030D600AA
:1005A800B83085317F2582310F2B86317026823114
:1005B800003A0319E02AE12A0F2B8331C123823143
:1005C800013A031DE82AE92A0F2B8631B326823126
:1005D80003302000BA000F2B20002F088A002E08B5
:1005E8000A008231C32A20003A082100CF00D00136
:1005F8005008003A0319012B0F2B4F08003A031932
:10060800982A013A0319A92A033A0319C62A013A72
:100618000319F02A0F2B08002100911253302000F3
:10062800D3000330D4008631912683312100111282
:100638001E302000D3000530D40086318B2683314C
:10064800183023009F0090309D0024309E00FF301A
:100658009B0002309C00D5302000D3000630D40027
:1006680086319D268331C8302000D3000630D4005F
:10067800863197268331CC302000D3000630D40051
:100688008631A32683312000B101B701B6010830B5
:10069800B500B401B301B201210091160800200091
:1006A8003408A03E86008701810123001D1D5D2BB3
:1006B8005E2B692B20003408A03E86008701811438
:1006C80027088A0026080A00833123009D1C6D2B09
:1006D8006E2B792B20003408A03E86008701011577
:1006E80025088A0024080A00833120003408A03E27
:1006F8008600870101080319822B832B892B230885
:100708008A0022080A0083318C2B8531CE2583315B
:1007180008008631D0268331003084315C2483314F
:10072800553084315C2483312100440884315C24B1
:10073800833121003908031DA22BA32BC02B2000D5
:10074800D601B32B5608C53E8600870101088431BF
:100758005C24833101302000D5005508D6072100DC
:100768004E0820005602031CBA2BBB2BA62B2100D7
:100778004D0884315C2483310800210039082000A9
:1007880039020318C82BC92BDA2B8431852483310D
:100798002000DB003908BA3E860087015B0881002B
:1007A8000130DB005B08B9070000F32BB901210019
:1007B80044082000D300BA30D4002100390883311E
:1007C800F52383312000DB00843185248331200028
:1007D8005B06031DF02BF12BF32B0130F42B0030BB
:1007E80008002000D7005308D500D6015508D900C5
:1007F8005608DA00D8011F2C540886008701010822
:100808005907D9005A0803185A0ADA000130D500E6
:100818005508D40701305A02003003195902031C45
:10082800162C172C1B2CFF30D9020030DA3B013074
:10083800D5005508D80757085802031C242C252C26
:10084800002CD909DA0959080800F4007008F200E8
:10085800F3017208F6007308F700F501522C7108CD
:100868008600870101087607F60077080318770ADB
:10087800F7000130F2007208F1070130770200300A
:1008880003197602031C492C4A2C4E2CFF30F60221
:100898000030F73B0130F2007208F5077408750262
:1008A800031C572C582C332CF609F7097608080036
:1008B8002000D40035080319622C632C5E2C21001B
:1008C800111A672C682C6D2C2000540823009A00FC
:1008D800822C111220003708B03E86008701540888
:1008E80081000130D3005308B70708303702031CD2
:1008F8007E2C7F2C802CB7010130B5022100111607
:1009080008002000320803198A2C8B2C852C330808
:10091800A03E860087010108B1003308A83E860082
:1009280087010108D4000130D3005308B307083009
:100938003302031CA02CA12CA22CB301210091127C
:1009480001302000B202210091162000540808004E
:1009580020003E03031DB12CB22CBF2C0130FD003A
:100968007D08BC0766083C02031CBB2CBC2CBF2CB2
:100978008631C426843120003D03031DC42CC52CB8
:10098800D22C0130FD007D08BB073F083B02031C49
:10099800CE2CCF2CD22C82311C228431080020008E
:1009A800DA005308D9005A08D800EC2C59088600F8
:1009B80087010108D7000130D6005608D907580822
:1009C80086008701570881000130D6005608D807ED
:1009D8000130D4020030D53B540A031DF72C550AC8
:1009E800031DF72CF82CDA2C0800F4007008F70027
:1009F8007408F600112D7708860087010108F500B4
:100A08000130F3007308F707760886008701750838
:100A180081000130F3007308F6070130F10200305D
:100A2800F23B710A031D1C2D720A031D1C2D1D2D7E
:100A3800FF2C08000830200035020318242D252D2E
:100A48003D2D3608B03E86008701010823009A0034
:100A58000130F00070082000B60708303602031C89
:100A6800362D372D382DB6010130F0007008B50746
:100A78003F2D2100111208002000DC002100380859
:100A88003F392000DB00BA30D3000830D4000030F2
:100A9800D5005C088431D324853100302000D30090
:100AA800D4000C30D5000030D600B83085317F2511
:100AB800853120005B080800F401F501701C652DE4
:100AC800662D6A2D7208F4077308F53D0130F2357A
:100AD800F30D890B6B2D0130F136F00C890B702D5D
:100AE80070087104031D792D7A2D622D7508F100A7
:100AF8007408F00008002000D9005908D8008D2D8E
:100B0800580886008701530881000130D70057082C
:100B1800D8070130D5020030D63B550A031D982D61
:100B2800560A031D982D992D842D08002200900146
:100B38008C018D018E01083021009000FF308C005F
:100B4800C0308D00BF308E0023008D0120308C0016
:100B5800240090018D012100951722009D010800B5
:100B6800F5007508F600C12D760886008701700823
:100B780081000130F4007408F6070130F2020030F9
:100B8800F33B720A031DCC2D730A031DCC2DCD2D0A
:100B9800B82D080020003408A83E860087012300ED
:100BA800190881000130F00070082000B4070830EF
:100BB8003402031CE02DE12DE22DB4010130F000D8
:100BC8007008B20708002000D9005608AD00550883
:100BD800AC005908C0005808AF005708AE0086316D
:100BE800BC2685318631672685318631C026853118
:100BF800080021001508C039143895000630200077
:100C080095000630B0000B118B16D430D300063097
:100C1800D400863185268531080085319A258631AC
:100C280086314F2686318631B82686318531FD25B5
:100C38008631833110238631863134268631080087
:100C48000B112000300895002008210403192D2ECF
:100C58002E2E332E21088A0020080A00863108002B
:100C680079302000D5008630D6005B30D7000630BA
:100C7800D80001308531E725863108002000D400EE
:100C88005408E60000308631A9268631000020008D
:100C9800BE01BE0A080070302100990098012200A8
:100CA800960121001A1F592E5A2E552E08005D3024
:100CB8008531402586312000E5006508013A031991
:100CC800662E662E0800AC302000D3000430D40015
:100CD800863185268631080020003208031D752ECE
:100CE800772E0130782E00300800013400340834A3
:100CF8000F3414344234640080010131890B802E92
:100D0800003420005408A1005308A0000800200067
:100D18005408AB005308AA00080020005408A90092
:100D28005308A800080020005408A5005308A40090
:100D3800080020005408A7005308A6000800200057
:100D48005408A3005308A20008002000D300530849
:100D58009500080023001D162100911608002300A5
:100D68001D1221009112080012302100970008007E
:100D78002000BC01BE0108002000BD01BD0A08001A
:100D88002000BC01BE01080023001D121D1608002A
:100D98008531CE258631080023009E1508000A34C7
:040DA8000800080037
:020000040001F9
:04000E00E43FFF1FAD
:00000001FF
