:020000040000FA
:0400000080313828EB
:100008007E1480318B1E09280A2812280B1D0D2802
:100018000E28122886318426803136280B1F152891
:10002800162836282100111E1A281B2826282000E9
:10003800111E1F28202826282B088A002A080A00B3
:10004800803136282100911E2A282B2836282000A6
:10005800911E2F283028362829088A0028080A00E7
:10006800803136287E10090080313A2887313D27B3
:100078008031E60020308400003085002A30863147
:10008800DF268031A0308400003085002F30863193
:10009800DF2680317E10200080315228863171267B
:1000A80080318B170B1724302000C200C301C40114
:1000B800C501C601C701C801C90187313E27803182
:1000C8008231F722803120008C1D6B286C2884280F
:1000D8008C1C6F28702884280C1C7328742884288A
:1000E80022000D110D128D122000C201C20AC30197
:1000F800C401C5010730C600C701C801C901E2280B
:100108008C1D872888289F288C1C8B288C289F2842
:100118000C188F2890289F2822000D110D128D167B
:1001280024302000C200C301C401C5010730C60045
:100138002030C70081288C1DA228A328B7288C1836
:10014800A628A728B7280C1CAA28AB28B72822005D
:100158000D110D168D1224302000C200C30140304D
:10016800C400C5017E288C1DBA28BB28C8288C1855
:10017800BE28BF28C8280C18C228C328C8282200AF
:100188000D150D168D16AF288C19CB28CC28E22812
:100198008C1CCF28D028E2280C1CD328D428E2288D
:1001A80022000D150D128D1224302000C200C0301F
:1001B800C300C401C5010730C60080288C19E52892
:1001C800E628FF288C1CE928EA28FF280C18ED28C7
:1001D800EE28FF2822000D150D128D162430200060
:1001E800C200C030C300C401C5010730C6002030BA
:1001F800C700C801C9018C19022903291C298C18B8
:10020800062907291C290C1C0A290B291C2922004C
:100218000D150D168D1224302000C200C030C30009
:100228004030C400C5010730C600C701C801C90174
:100238008C191F29202964288C182329242964282B
:100248000C1827292829642822000D150D168D164B
:1002580024302000C200C030C3004030C400C501B3
:100268000730C600C701C801C90164288031382891
:100278002000CA002D08CD002C08CC00CB0157293E
:100288004C0884004D08850000084A06031D4D29C6
:100298004E294F295D290630CC070030CD3D01306D
:1002A800F9007908CB0740084B02031C5C295D293B
:1002B80044290030F000F1000B30F2000030F30068
:1002C800C43086311426813120004C0884004D0842
:1002D800850000088131F62181312100C400200009
:1002E8004D08FA004C08F9000130790784007A08B3
:1002F80003187A0A85001200031D83298429CD2951
:100308004D08FA004C08F9000230790784007A0891
:1003180003187A0A85001200031993299429BC2925
:100328004D08FA004C08F9000230790784007A0871
:1003380003187A0A850000082100CE007808F0002A
:1003480020004D08FA004C08F900023079078400B3
:100358007A0803187A0A85000008FB00FC017B086C
:10036800F1007C08F200C530853159258131C12959
:100378002100CE01CE0AAA30C50021004408F000B1
:10038800C530F1004E088431892481312100CD0027
:10039800F2294D08FA004C08F90002307907840068
:1003A8007A0803187A0A850000082100B90020009D
:1003B8004C0884004D08850000082100B800200082
:1003C8004D08FA004C08F9000330790784007A08D0
:1003D80003187A0A850000082100C3002000C10123
:1003E800C10A0800F1007108F200F218FC29FE2980
:1003F8000130FF290030F0007218032A052A013065
:10040800062A00307006031D0A2A0C2A72170D2AC4
:1004180072137219102A122A0130132A0030F000C0
:10042800721B172A192A01301A2A00307006031D78
:100438001E2A202A7217212A7213721A242A262A9F
:100448000130272A0030F000721B2B2A2D2A013098
:100458002E2A00307006031D322A342A7217352AD4
:100468007213F219382A3A2A01303B2A0030F00078
:10047800F2183F2A412A0130422A00307006031D33
:10048800462A482AF217492AF213721A4C2A4E2A87
:1004980001304F2A0030F000F21B532A552A013050
:1004A800562A00307006031D5A2A5C2AF2175D2A64
:1004B800F213F21A602A622A0130632A0030F0002F
:1004C800F21B672A692A01306A2A00307006031D68
:1004D8006E2A702AF217712AF2130310F21F0314FE
:1004E8000318772A792AF2177A2AF2137208080071
:1004F8002000BB013808CE00CF014E08F0004F089D
:10050800F1000630F2000030F3008531C025823159
:10051800700820002C07D10071082D3DD200520828
:10052800CF005108CE0004304E0784004F0803184E
:100538004F0A850012000319A22AA32AB82A5208D2
:10054800CF005108CE0005304E0784004F0803182D
:100558004F0A85000008F8005108840052088500F9
:10056800000881313C21823101302000CE004E0844
:10057800B80740083802031CC22AC32AC42AB80193
:100588003808CE00CF014E08F0004F08F1000630C1
:10059800F2000030F3008531C02582317008200058
:1005A8002C07D10071082D3DD2005208CF00510808
:1005B800CE0004304E0784004F0803184F0A850008
:1005C80012000319E82AE92AB82A5208CF0051086C
:1005D800CE0004304E0784004F0803184F0A8500E8
:1005E8000008BF000800572B20004103031DFD2A07
:1005F800FE2A6F2BC1018731132782318331ED2306
:1006080082312000BA01BA0A6F2B111A0C2B0D2B5C
:100618006F2B23009E1C112B122B6F2B21003908E6
:100628000319172B182B232B43088631A226823156
:1006380087310E27823102302000BA006F2B20004C
:10064800BA016F2B20003E08031D2B2B2C2B392BB6
:10065800BA010030D300D4000C30D5000030D600E9
:10066800B8308531DF2582316F2B8631D026823133
:10067800003A0319402B412B6F2B843121248231FE
:10068800013A031D482B492B6F2B873113278231E1
:1006980003302000BA006F2B20002F088A002E0894
:1006A8000A008331232B20003A082100CF00D00113
:1006B8005008003A0319612B6F2B4F08003A0319B1
:1006C800F82A013A0319092B033A0319262B013A90
:1006D8000319502B6F2B080021009112B330200012
:1006E800D3000330D4008631F12683312100111262
:1006F8007E302000D3000530D4008631EB268331CC
:10070800183023009F0090309D0024309E00FF3059
:100718009B0002309C0043302000D3000730D400F7
:100728008631FD2683312C302000D3000730D400D9
:100738008631F726833130302000D3000730D400CB
:100748008731032783312000B101B701B601083092
:10075800B500B401B301B2012100911608002000D0
:100768003408A03E86008701810123001D1DBD2B92
:10077800BE2BC92B20003408A03E860087018114B7
:1007880027088A0026080A00833123009D1CCD2BE8
:10079800CE2BD92B20003408A03E860087010115F6
:1007A80025088A0024080A00833120003408A03E66
:1007B8008600870101080319E22BE32BE92B2308A4
:1007C8008A0022080A008331EC2B86312E268331D9
:1007D800080087313427833100308431BC248331C9
:1007E80055308431BC248331210044088431BC2431
:1007F800833121003908031D022C032C202C2000F2
:10080800D601132C5608C53E86008701010884319D
:10081800BC24833101302000D5005508D6072100BB
:100828004E0820005602031C1A2C1B2C062C2100F3
:100838004D088431BC248331080021003908200088
:1008480039020318282C292C3A2C8431E5248431C8
:100858002000DB003908BA3E860087015B0881006A
:100868000130DB005B08B9070000532CB9012100F7
:1008780044082000D300BA30D4002100390884315C
:10088800552484312000DB008431E52484312000A4
:100898005B06031D502C512C532C0130542C003076
:1008A80008002000D7005308D500D6015508D90004
:1008B8005608DA00D8017F2C540886008701010801
:1008C8005907D9005A0803185A0ADA000130D50026
:1008D8005508D40701305A02003003195902031C85
:1008E800762C772C7B2CFF30D9020030DA3B013094
:1008F800D5005508D80757085802031C842C852CA6
:10090800602CD909DA0959080800F4007008F200C7
:10091800F3017208F6007308F700F501B22C7108AC
:100928008600870101087607F60077080318770A1A
:10093800F7000130F2007208F10701307702003049
:1009480003197602031CA92CAA2CAE2CFF30F60240
:100958000030F73B0130F2007208F50774087502A1
:10096800031CB72CB82C932CF609F7097608080055
:100978002000D40035080319C22CC32CBE2C21003A
:10098800111AC72CC82CCD2C2000540823009A001B
:10099800E22C111220003708B03E86008701540867
:1009A80081000130D3005308B70708303702031C11
:1009B800DE2CDF2CE02CB7010130B5022100111626
:1009C8000800200032080319EA2CEB2CE52C330828
:1009D800A03E860087010108B1003308A83E8600C2
:1009E80087010108D4000130D3005308B307083049
:1009F8003302031C002D012D022DB3012100911299
:100A080001302000B202210091162000540808008D
:100A180020003E03031D112D122D1F2D0130FD0056
:100A28007D08BC0766083C02031C1B2D1C2D1F2DCE
:100A380087312827853120003D03031D242D252DCE
:100A4800322D0130FD007D08BB073F083B02031C27
:100A58002E2D2F2D322D82317C2285310800200049
:100A6800DA005308D9005A08D8004C2D59088600D6
:100A780087010108D7000130D6005608D907580861
:100A880086008701570881000130D6005608D8072C
:100A98000130D4020030D53B540A031D572D550AA6
:100AA800031D572D582D3A2D0800F4007008F70043
:100AB8007408F600712D7708860087010108F50093
:100AC8000130F3007308F707760886008701750878
:100AD80081000130F3007308F6070130F10200309D
:100AE800F23B710A031D7C2D720A031D7C2D7D2D9E
:100AF8005F2D08000830200035020318842D852D4D
:100B08009D2D3608B03E86008701010823009A0013
:100B18000130F00070082000B60708303602031CC8
:100B2800962D972D982DB6010130F0007008B50765
:100B38009F2D2100111208002000DC002100380838
:100B48003F392000DB00BA30D3000830D400003031
:100B5800D5005C0885313325853100302000D3006D
:100B6800D4000C30D5000030D600B8308531DF25F0
:100B7800853120005B080800F401F501701CC52DC3
:100B8800C62DCA2D7208F4077308F53D0130F235F9
:100B9800F30D890BCB2D0130F136F00C890BD02DDC
:100BA80070087104031DD92DDA2DC22D7508F100C6
:100BB8007408F00008002000D9005908D800ED2D6D
:100BC800580886008701530881000130D70057086C
:100BD800D8070130D5020030D63B550A031DF82D41
:100BE800560A031DF82DF92DE42D08002200900166
:100BF8008C018D018E01083021009000FF308C009F
:100C0800C0308D00BF308E0023008D0120308C0055
:100C1800240090018D012100951722009D010800F4
:100C2800F5007508F600212E760886008701700801
:100C380081000130F4007408F6070130F202003038
:100C4800F33B720A031D2C2E730A031D2C2E2D2E26
:100C5800182E080020003408A83E860087012300CB
:100C6800190881000130F00070082000B40708302E
:100C78003402031C402E412E422EB4010130F000F4
:100C88007008B20708002000D9005608AD005508C2
:100C9800AC005908C0005808AF005708AE008731AB
:100CA8001C2786318631C726863187312027863131
:100CB800080021001508C0391438950006302000B6
:100CC80095000630B0000B118B164230D300073068
:100CD800D4008631E526863108008531FA2586312B
:100CE8008631AF26863187311827863186315D26D1
:100CF8008631833170238631863194268631080007
:100D08000B112000300895002008210403198D2EAE
:100D18008E2E932E21088A0020080A0086310800AA
:100D2800D9302000D5008630D600BB30D700063039
:100D3800D800013086314726863108002000D400CB
:100D48005408E6000030873109278631000020006A
:100D5800BE01BE0A080070302100990098012200E7
:100D6800960121001A1FB92EBA2EB52E08005D3043
:100D78008531A02586312000E5006508013A031970
:100D8800C62EC62E08000C302000D3000530D40033
:100D98008631E5268631080020003208031DD52E4D
:100DA800D72E0130D82E0030080001340034083422
:100DB8000F3414344234640080010131890BE02E71
:100DC800003420005408A1005308A00008002000A7
:100DD8005408AB005308AA00080020005408A900D2
:100DE8005308A800080020005408A5005308A400D0
:100DF800080020005408A7005308A6000800200097
:100E08005408A3005308A20008002000D300530888
:100E18009500080023001D162100911608002300E4
:100E28001D122100911208001230210097000800BD
:100E38002000BC01BE0108002000BD01BD0A080059
:100E480020003008950008002000BC01BE01080001
:100E580023001D121D16080086312E268731080032
:100E680023009E15080020001508080023001E080E
:100E780008000A34080008000800080008000800F4
:020000040001F9
:04000E00E43FFF1FAD
:00000001FF
